:10100000004D0020E93100003BAB0000D53100006D
:10101000D5310000D5310000D531000000000000BE
:10102000000000000000000000000000213200006D
:10103000D53100000000000021340000D53100004F
:10104000993400009934000099340000993400006C
:10105000993400009934000099340000993400005C
:10106000993400009934000099340000993400004C
:10107000993400009934000099340000993400003C
:10108000993400009934000099340000993400002C
:10109000993400009934000099340000993400001C
:1010A000993400009934000099340000993400000C
:1010B00099340000993400009934000099340000FC
:1010C00099340000993400009934000099340000EC
:1010D00099340000993400009934000099340000DC
:1010E00099340000993400009934000099340000CC
:1010F00099340000993400009934000099340000BC
:1011000053B94AB9002908BF00281CBF4FF0FF316E
:101110004FF0FF3000F00CB8ADF1080C6DE904CED3
:1011200000F01AF8DDF804E0DDE9022304B07047AE
:10113000704700BF10F8012B11F8013B012A28BFAE
:101140009A42F7D0D01A7047034613F8012B002AB1
:10115000FBD1181A013870472DE9F0478C468E46AE
:10116000089E154604461946002B40F0D080724573
:1011700047D9B2FA82F74FB1C7F120030EFA07FC44
:1011800020FA03F3BD4043EA0C0CBC404FEA154E75
:10119000A8B2BCFBFEF8230C0EFB18CC08FB00F930
:1011A00043EA0C43994528D9EB1808F1FF3204D2E1
:1011B000994502D9A8F102022B44A3EB0903A4B27A
:1011C000B3FBFEFC0EFB1C330CFB00F044EA0344B3
:1011D000A04214D92C190CF1FF3304D2A04202D939
:1011E000ACF102032C44241A43EA02401EB1FC4035
:1011F000002334607360BDE8F0874246DDE7634654
:10120000F1E7002A79D0B2FA82F3002B3FD01946D9
:10121000C1F1200302FA01F52EFA03F20EFA01FEE3
:1012200020FA03F343EA0E034FEA154E00FA01F4E5
:10123000B2FBFEFCAFB20EFB1C201A0C0CFB07F835
:1012400042EA004290455AD9AA180CF1FF3004D264
:10125000904502D9ACF102002A44A2EB08029BB2ED
:10126000B2FBFEFC0EFB1C220CFB07F743EA024319
:101270009F4246D9EB180CF1FF3204D29F4202D9AB
:10128000ACF102022B44DB1B42EA004202E0AEEB6F
:10129000020301224FEA154EAFB2B3FBFEFC200C55
:1012A0000EFB1C330CFB07F840EA034398452AD990
:1012B000EB180CF1FF3004D2984502D9ACF10200D2
:1012C0002B44A3EB0803A4B2B3FBFEFC0EFB1C33C0
:1012D0000CFB07F744EA0344A74216D92C190CF17A
:1012E000FF3304D2A74202D9ACF102032C44E41B21
:1012F00043EA00400F46114678E71F2188E7604621
:10130000ABE76246BFE76046DBE76346EFE773455E
:1013100006D916B9002108466DE7C6E9000EF9E7BF
:10132000B3FA83F787B9734501D3824207D8841A89
:101330006EEB030301209C461EB900215BE7384693
:10134000FAE7C6E9004CF8E7C7F1200CBB4022FAE7
:101350000CF51D4320FA0CF12EFA0CF30EFA07FEE1
:1013600041EA0E014FEA154900FA07F4B3FBF9F818
:101370001FFA85FE09FB18300B0C08FB0EFA43EA36
:1013800000439A4502FA07F240D9EB1808F1FF3002
:1013900004D29A4502D9A8F102002B44A3EB0A0318
:1013A00089B2B3FBF9F809FB183308FB0EFE41EADA
:1013B00003418E452CD9691808F1FF3304D28E45BC
:1013C00002D9A8F10203294443EA0040A0FB029895
:1013D000A1EB0E014145CE46434602D306D14C4512
:1013E00004D2B9EB020E68EB05030138002EA4D03D
:1013F000B4EB0E0261EB030101FA0CFC22FA07F3D5
:101400004CEA0303F940C6E9003196E74046C5E7D8
:101410004346D9E773B5194808F0E2FD4FF0FF32B3
:101420004FF0FF331648174D07F030F8164808F014
:10143000D7FD2868836801AA9B68694698470446D7
:1014400028B10146114808F0CBFD02B070BDDDE9BE
:1014500000610F48890808F0C3FD56F824100D48B4
:10146000023408F0BDFD142CF7D14FF0FF324FF0DD
:10147000FF33694608480CF008FADAE716E800007E
:10148000F4050020D000002034E8000051E80000FE
:1014900062E800004FE900009405002007B52148EC
:1014A00008F09EFD20484FF0FF324FF0FF3306F06A
:1014B000EDFF1E4808F094FD4FF0FF324FF0FF3370
:1014C00069461B4806F052FE01A91A484FF0FF3248
:1014D0004FF0FF3306F0B6FD014638B1164808F06C
:1014E0007FFD009915480CF071F9E5E74FF40062B3
:1014F000DDE900100CF086FD009910480CF066F94B
:101500000F4B0199186883684FF40062DB689847B5
:1015100001460028D0D00B4808F062FD019905482B
:10152000E1E700BF6EE80000040600208CE8000040
:101530009405002048050020A9E800002C050020A3
:10154000D0000020BFE800002DE9F7433A4C3B48AB
:1015500008F046FD20680CF09EF8002836D1384887
:1015600008F03EFD00254FF0FF334FF0FF3201A998
:10157000344806F067FD4FF40062002101980CF03A
:101580004FFD2068019983684FF40062DB6898473B
:101590002946024601352C4808F022FD042DE2D1EF
:1015A0002068836800221B6902219847014627486A
:1015B00008F016FD264806F035FF264806F032FFF3
:1015C00000214FF400400CF0B1FBF9E7224808F08D
:1015D00007FD224A1B4B206893604FF48C794FF42F
:1015E000FA584FF400674FF0FF36C2F80090C2F887
:1015F0000480D7601661836801211B6898470546FF
:1016000008B11748ACE70146164808F0E9FC164A4D
:10161000164B20681661C2E90098C2E90237836858
:1016200029461B689847014608B1114898E71148B8
:1016300008F0D6FC96E700BFD0000020D1E80000FB
:10164000DBE800004805002053E900006AE90000DB
:1016500004060020F4050020EAE8000058100020ED
:10166000F5E800000DE900006C1000202C050020BA
:1016700024E900003CE900002DE9F84F8A4600AF5C
:10168000002974D004680E1F361BF50826F00706E3
:1016900004EB0608B8F802B01BF0010B16D1E946BE
:1016A00088B06A46334BCDE90531032342F8103F39
:1016B00031485B464FF4C25100F0ACFFCD468BF38E
:1016C0001188BFF36F8F0423184602DF2946204696
:1016D00008F093FA284434F83030C01A854217D005
:1016E000E94688B06A46254BCDE9053A032342F81E
:1016F000103F214800234FF4C25100F08BFF00231C
:10170000CD4683F31188BFF36F8F0423184602DFA1
:10171000B8F8023023F00103A8F802302946204629
:1017200008F06BFA05EB000804EBC8035B88DA07E6
:1017300008D44146204608F0A9FA424629462046E8
:1017400008F0E9FAA65BAE1B04EBC6035B88DB0777
:1017500009D43146204608F099FA2A4631462046F7
:1017600008F0D9FA35462946204608F04BFABD461E
:10177000BDE8F88FF3E9000030E50000CAE9000099
:1017800008B5024808F02CFC002008BD20EA000043
:101790002DE9F04F91B08407009302F00403029307
:1017A000C2F3C20303F10103DDF868A0039205460A
:1017B0000E46059340F09D81041D00284AD101F09A
:1017C0000706341DC6F10806009B00275A1E4FF07D
:1017D00004084FF0FF3301930497B946BB464346D4
:1017E0000DB1009921600598002800F3D78090483A
:1017F0000099814203D38F488142C0F0CF80039982
:1018000011F0020CA4EB050040F0D680B9F10F0FE7
:1018100000F2CF80002D00F0D68009F140010DEBE1
:10182000010EC0F3870001990EF8200C0EF8101C71
:10183000BCF1000F00F0C38060F07F000EF8200CB8
:10184000013709F10109C5F10801043406914FF689
:10185000DA7E8CE00729B7D86FF01B0011B0BDE825
:10186000F08F7A285BD84B280FD8472857D82928DB
:101870002ED8252850D052D8202818BF23280CBF96
:101880004FF0010B4FF0000B71E04C382E2846D87A
:10189000DFE800F06D45454545454545454545452D
:1018A000484545454545454545564548485656569B
:1018B0006D486A456D4518481845457F7C48454543
:1018C00048457C0000204FF0000B4FF0040835E045
:1018D0002A38C0B2012101FA00F010EA0E0F46D1F9
:1018E00010F0625C2CD110EA010B40D06046013C44
:1018F0004444B4FBF8F408FB04F425B1A3EB050C55
:10190000A444B445A8D8002870D0059901390591A0
:101910005AF8041B009163E70199013901914FF0D6
:10192000000B24E012F8010C6C2834D112F8023CB0
:1019300000206C2B8346C8D14FF008084346D6E7F9
:101940000AF1070A2AF0070A0734FAE802BC24F071
:10195000070435B106982044B0423FF67DAFC4E994
:1019600000BC08344FF0000B4FF00808434612F853
:10197000010F002853D0BBF1000F7FF472AF252870
:10198000F5D1019B013301934FF0010B4FF0040897
:10199000ECE7584697E700208346A8E703998807B5
:1019A0007FF551AF601B4FF0010CB0F5007FFFF4E5
:1019B0002DAF6FF0150051E74FF0000CF5E70498DC
:1019C000013004903DE7BCF1000F01D0013638E74B
:1019D0000298023600287FF434AF0098CDE9063231
:1019E000FFF7B2FBDDE9063206442AE7042B08D1F3
:1019F0000AF1040015B1DAF80010216004348246BF
:101A0000B5E70AF1070323F0070303F1080A1DB144
:101A1000D3E90001C4E9000108340823A7E7631BE8
:101A2000B3F5806FC5D23DB9A6F10804E01815E7FB
:101A300030E10000F8F70000029A28609B082B7044
:101A40009DF81030AAB1EB70AF702FB108A800223A
:101A5000C5F1010C91450ED1C5F101030DF120082E
:101A60004FF0000A01930DF1300BD14512D1601BEC
:101A7000F4E66B70E8E710F8013B190608D50CEBAB
:101A8000040EB64503F07F033FF6E6AE04F8013BD3
:101A90000132DFE71FB198F90020002A17DB029B13
:101AA000D3B11AF80B2004F8012B0022019B18195E
:101AB0001044B0423FF6D0AE98F8000004F8010B95
:101AC0000099039220460CF09DFA039A14440AF1FF
:101AD000010A08F10108C8E798F8002055F82230FB
:101AE0000093029B45F822300098FFF72DFB421C23
:101AF000DCE76FF00D00B1E62DE9F04F97B000AFD5
:101B0000C7E90A320446894649B90378467880789D
:101B100000EB830020444E4525D8A0EB0409D7F8FC
:101B20008030A678D7F880A003F00103FB61E3784A
:101B30007B62002E0CBF4FF0000A0AF0010A1BB1B5
:101B4000D7F880309D0717D4BAF1000F14D1FB6A83
:101B50001BB1BA6A4946204698474D4628465C372D
:101B6000BD46BDE8F08F451C2846FFF7EDFA013071
:101B7000284409F10109CEE7D7F88030C3F3C00348
:101B80003B622378BB619B003B6163687B61BB69FF
:101B900004EB830BFB6A002B40F083804D465E44D0
:101BA000BAF1000F1CD0DFF894829A461BF8013B73
:101BB00054F82300002808BF4046FFF7C5FAD7F8BD
:101BC000843001304BB1D7F88830534582BFD7F805
:101BD000843023F81A000AF1010A5E450544E5D174
:101BE000D7F8803013F0050F0CBF4FF0020B4FF009
:101BF000010B4FF000087B6A9845AFD2737854F818
:101C000023908F4B994506F10206C0F059818D4B08
:101C10003A6A99452CBF002301230AB316F8021C27
:101C20007869FB6208F0BDF9FB6AC8B1E9468AB081
:101C30006A46854B05937B69CDE906314FF4007305
:101C4000ADF82030814B42F8103F814800234FF41B
:101C5000125100F0DFFC023DCD4608F10108CAE751
:101C600023B1FB6933B9A5EB0B05F6E7D7F8803054
:101C70009807F2D57148B9F1000F18BF4846FFF731
:101C800063FAD7F8843053B1D7F888309A453FBF0C
:101C9000D7F88420431C22F81A300AF1010A0544BF
:101CA000DBE7BAF1000F68D1002E6CD0D7F8803096
:101CB00059076BD5B04607F14800324659460CF03B
:101CC000A1F90BEB0603FB6003F1020B00237A6A18
:101CD00093425DD3D7F8802094F801B0F969920758
:101CE0000AEB0B03DBB254BF4FEA58020022002973
:101CF00040F0A280D7F8801011F0040F14BF4146C5
:101D000000216370A170E2703969BA6AFB6A2046EB
:101D10009847051EFFF622AFBB6923707B6AE3700C
:101D20004146BA6AFB6A84F801B0A67007F1480020
:101D30009847B0F10008C0F2BF803B697A6A786AC0
:101D400003EB4201FB68BA6A314403EB4000A9EBA4
:101D50000101FB6A98470028C0F2B080A84408EB54
:101D6000000507F138094FF00008D04572D3002173
:101D7000BA6AFB6A08469847F0E6B24607F13800AF
:101D80004FF0000899E7B246B0469AE7D04698E788
:101D90001BF8015C2A4854F825201BF8021C8242DB
:101DA000C0F0948027488242386A2CBF002201226A
:101DB00038B17869C7E9012308F0F3F8D7E90123BE
:101DC000F0B90AB3FA695AB10AF1280207F13000F2
:101DD00010180AF1010100F8205C5FFA81FA0FE0A7
:101DE000D7F8802052070BD508F1280207F1300000
:101DF00008F1010102EB000808F8105C5FFA81F8B5
:101E000001330BF1020B62E7D7F880209007DBD497
:101E100008F1280207F1300C08F10100944407F1A1
:101E2000580252FA80F008F102080CF8101C5FFA10
:101E300088F800F8105CE3E7002162E75BEA000045
:101E400030E10000F8F7000062EA00000400000141
:101E5000D8E4000018F8093087F8373054F823B078
:101E6000D7F8843033B3D7F88830984522D2D7F8E2
:101E7000843033F81860BA6AFB6A012107F1370031
:101E8000984700281ADB144B0544BBF1000F08BF2C
:101E90009B4626B95846FFF757F9461CB6B2BA6AB0
:101EA000FB6A314658469847002807DB054408F18D
:101EB00001085AE70026DEE745464FE605464DE6AF
:101EC0003B6A002B3FF4D2AE0023A7E63A6A002A11
:101ED0009AD000226DE700BF5BEA0000014B18605A
:101EE000704700BFD40000202DE9F047058B044661
:101EF000280717460CD501290CBF45F0100545F001
:101F00002005258387F31188BFF36F8FBDE8F08725
:101F1000022905F0070540F09480204608F0F3FA06
:101F2000052864D801A353F820F000BF051F000066
:101F300043200000EF1F0000B11F0000CB1F000076
:101F4000DD1F000001F007035A1F012A1FD80022DD
:101F500021F00701062BD4F8008089B2C4E90022E1
:101F600009D1434603E0628B013262831B68002B78
:101F7000F9D141F002012183204608F0C4FA4FF064
:101F8000000900286DD041F02001218369E0042B75
:101F90000AD121F0070189B22183204608F0B3FA63
:101FA00010B141F0200121834FF00008C14658E0F4
:101FB0002369D3F80090238B23F0070343F0060333
:101FC00023834FF0000846464BE02369D3F8049082
:101FD000238B23F0070343F00403F1E72369D3F8CD
:101FE0000890238B23F0070343F00503E8E74FF045
:101FF0000008C146E7E7012243F00803238387F383
:102000001188BFF36F8F002A3BD1B8F1000F4AD17E
:10201000B9F1000F02D02D492046C847EFF31187D0
:10202000202383F31288BFF36F8F238B23F00803E1
:102030009BB22383D9063FD523F01002228303F0FD
:1020400007056669218B002EBFF67CAF0023D4F80C
:10205000008021F00701C4E9003341F00101218330
:102060009946238B03F0070AAA4502D0A268002AEA
:10207000C1D1B8F1000F02D1B9F1000FDAD00022BE
:10208000BAE7A1680029C0D00D680029BDD04F680B
:10209000334652462046B8471DB12B6829461D4697
:1020A000F3E72B46FAE74146334652462046D8F836
:1020B000008008F054FAA8E79A067FF523AF23F0D2
:1020C0002002228303F0070527E700BF8BA500004D
:1020D0002DE9F047DFF85480044607464FF0010928
:1020E00094FAA4F5B5FA85F509FA05F32E0108EB83
:1020F00005156FEA030A24EA03042B7B63B158F841
:1021000006301B696BB94644042273682846196877
:1021100007EA0A0708F0C7FB002CE1D13846BDE802
:10212000F087284698470028F6D1ECE758E50000EC
:1021300010B51049104888B000220BF0D3FE4FF4C0
:1021400000320023CDE9062300240E23CDE9033419
:10215000CDE90144094B0A4900944FF44072094803
:1021600006F084FC084907480BF0F2FC204608B052
:1021700010BD00BF8D210000900C0020BD24000088
:10218000803500200008002021EB0000014806F007
:1021900049B900BF140600202DE9F04780462148C8
:1021A0000F4608F060FB0646002833D0002528467D
:1021B000BDE8F087237B83B12368DB680BB1204641
:1021C0009847636883F8069023681B69D3B96368EE
:1021D00004221968204608F066FB01361034544585
:1021E000E8D3B8F1000FE2D0002DDFD02846FFF78A
:1021F0006FFF0546002FF7D000214FF4A4700BF0BD
:1022000095FDF1E7204698470028E0D009FA06F34B
:102210001D43E2E7044CDFF814A005464FF0010926
:10222000DDE700BF9010002058E5000068E50000E1
:10223000014B53F8200070478CE5000008B50346B9
:1022400008462BB1044A136000F056FC002008BD7C
:102250006FF01500FBE700BFD800002010B5044C5C
:10226000237813B9034806F0DDF80123237010BD6D
:10227000C01400201406002010B504460B4808F0D6
:10228000F2FA5CB1BFF35B8F094B53E8001F0139D1
:1022900043E80012002AF8D1BFF35B8F054807F02E
:1022A000A3F90548BDE8104006F0BCB8881000202E
:1022B0008C100020900C002014060020064BBFF369
:1022C0005B8F002253E8000F43E800210029F9D179
:1022D000BFF35B8F704700BF8810002070B5FFF719
:1022E000EDFF084C084E0546B44200D370BD63684C
:1022F0005B792BB123685B6813B129462046984768
:102300001034F1E758E5000068E5000010B5044C12
:102310000449204607F071FF034B1C6010BD00BF4D
:10232000F004002078E50000801000200D4A0E48DF
:10233000002310B513700D4A13600D4A4FF400418D
:102340001360FFF77BFFFFF7E1FF0A4B0A491846CE
:102350008B4200D310BD1A1A5C681211013222712F
:102360001033F5E7C114002063A800008810002096
:102370008C10002058E5000068E5000001460022AE
:102380000148002307F05ABFF0040020014807F07D
:10239000F1BF00BFF0040020024B0146186808F0AE
:1023A00044B800BF80100020014808F079B800BF91
:1023B000F004002070B52A4B1B78002B4ED0FFF79D
:1023C000E5FF0446002846D1264B274D1B68002B0D
:1023D00019DD0BF03FFD4FF47A76A0FB063206FBC9
:1023E0000121D5E90020DB0B43EA41439B1A4FEA68
:1023F000D13140F2E93261EB0001934271F1000109
:1024000001D3FFF76BFFD5E9003213F57A7342F180
:102410000002C5E900320CB3BDE87040FFF7C4BF4D
:102420006B685B7923B12B6821461B682846984767
:102430001035B542F4D32046FFF7AEFFBFF35B8FF4
:102440000A4B53E8001F013943E80012002AF8D173
:10245000BFF35B8FB8E7064D064EEAE7002070BD7C
:10246000C014002088100020880C00208C10002050
:1024700058E5000068E5000070B50D4D297861B998
:102480000120FFF789FE0B4C0B4EB44206D3FFF739
:1024900091FF0028FBD101232B7070BD63685B792D
:1024A0001BB1236820469B6898471034EDE700BFB6
:1024B000C114002058E5000068E5000000212DE966
:1024C000F8430846FFF768FE044648B340F26768E1
:1024D0004FF0000900F0F2FF1A4B1B4A1B58136023
:1024E00033B11A4B1B68092B02DD194805F09AFF1E
:1024F000184F002544B12046FFF7EAFD044618B9FD
:102500004FF0FF384FF0FF39FFF754FF064628B968
:10251000B5B90F4842464B4605F0B8FF3546E9E7E6
:102520004FF0FF384FF0FF39D4E72B689B691BB1A0
:1025300000221146284698471035BD42F5D3E8E7FA
:10254000054DFAE708000000841000208C100020E0
:102550001406002068E5000058E5000013B518488F
:1025600008F081F9174B1B7873B1EFF31184202326
:1025700083F31288BFF36F8FFFF71CFF84F311887A
:10258000BFF36F8F02B010BD0F4B1B68002BF9D04B
:1025900050B900220023CDE900230C484FF400423B
:1025A000002306F0F9FFEDE70928EBD1074807F013
:1025B0001BF8074802B0BDE8104005F033BF00BF6C
:1025C0008C100020C114002084100020900C0020EA
:1025D0001406002010B5064B1B6804469847214698
:1025E000A060044807F0A7FEBDE81040FFF7B6BFA3
:1025F000D8000020F0040020044A054B9B1AB1EBE0
:10260000D30F34BF52F8310000207047D8E40000E7
:1026100058E500002DE9F04F8FB004AFC1F34A2612
:10262000B8600D4690467B600C0D002E61D04FF0D7
:1026300000090A234FF0040B07F1140AFE60C7E9F2
:102640000799C7F824900093CDF808B0CDF804A0FE
:1026500007F11C03F9684A464046FFF74DFAB0F50A
:10266000006F03461CD36C468AB0D8F8041004AB44
:102670002448C3E9050140F2FF71D9611A464FF4BD
:1026800000711984204B42F8103F20484B464FF40C
:102690001251FFF7BFFFA5462C37BD46BDE8F08FAE
:1026A000C0F30A0604F11700184420F00700800860
:1026B0003B60FFF763FE66F35325044680B13B6839
:1026C000134A00F11001C7E90839F961CDE901ABFE
:1026D0000A230093F96807F11C034046FFF70CFA40
:1026E00066F353257B68B9682A46204608F0FBF854
:1026F000D2E704F1170020F007008008FFF73EFE44
:102700000446EDE736EB000004000001F0E40000B1
:10271000B9A800002DE9F04F87B0DDE9127ADDE9B4
:10272000106B0546884614469946BFB11021CDF876
:1027300000A03B465A460020CDF814A0FFF728F829
:10274000B0F5006F01460BD3194A1A4840F2FF73E7
:10275000022107B0BDE8F04F08F01EB939463846EF
:1027600004F0070305F00704E40044EA831444EA94
:10277000402444EA065406F11700084420F00700FC
:1027800080080391FFF7FAFD054640B13FB1039978
:10279000CDF800A03B465A461030FEF7F9FF4B46F5
:1027A00022464146284607B0BDE8F04F08F09BB8E6
:1027B00075EB0000F0E40000406820B1034BC01A44
:1027C00040F3CF0070474FF0FF307047D8E400006F
:1027D0000EB403B503AB014653F8042B0448019330
:1027E00000F0F2FF02B05DF804EB03B0704700BFE9
:1027F000FBA90000CA0605D48B064CBF0249034959
:10280000FFF7E6BF704700BFAEEB0000ADEB000086
:102810002DE9F04F8BB09946179B0793DDE918A37C
:102820009DF858801A9F069204460D460593B8F10C
:10283000000F00F0BF80844B13F80830089307F4B2
:102840008073099308F02DF807F0020B0246002868
:102850007DD07E492046FFF7BBFF0646BBF1000F47
:1028600008D017F0440F74D179492A462046FFF763
:10287000AFFF064407F0010353B1764B764953F896
:102880002820764B2046002A08BF1A46FFF7A0FFF3
:1028900007F48073002B07F0080318BF4FF00009FE
:1028A000002B00F082806E4B6E4953F828202046A2
:1028B000FFF78EFF0546069B2BB16B491A46204653
:1028C000FFF786FF0544B9F1000F0DD0089B002BE0
:1028D0006ED06649664BB8F1040F18BF19464A46D8
:1028E0002046FFF775FF054462483544079B1BB13E
:1028F0006149224607F024FB059B002B00F09080E5
:10290000DDF814903946B9F1100F204628BF4FF07A
:102910001009FFF76FFF0026B54252DC0026334650
:102920001AF8032055492046FFF752FF0136102EB2
:102930004DD0710703D152492046FFF749FF4E455C
:102940003346EDD34F492046FFF742FFEEE70646F8
:1029500084E74D4B186800288BD04C4B4FF47A7BA2
:102960001B68B5FBF3F54FF46163B5FBF0F100FBB9
:1029700011550BFB05F54FF03C0CB1FBF3F203FBDB
:102980001211B5FBF0FEB1FBFCF300FB1E550CFB76
:1029900013110BFB05F50091B5FBF0F53C49CDE9B2
:1029A00001E52046FFF714FF63E707F0080582E71B
:1029B0002F4994E7B9F1010F0CBF2E483548454621
:1029C00094E72F492046FFF703FF0136A4E7324979
:1029D00020460026FFF7FCFE33461AF803202F4955
:1029E000A2F120035F2B28BF2E222046FFF7F0FE26
:1029F0000136102E0DD0720703D121492046FFF772
:102A0000E7FEB1453346E8D81D492046FFF7E0FE12
:102A1000EEE7059BB3EB0903CA4405937FF470AF5F
:102A2000B8F1000F0AD0FB0704D50C4A0A4920462A
:102A3000FFF7CEFE39462046FFF7DCFE20460BB0FE
:102A4000BDE8F04F07F0CCBF8EF70000BEEB0000F2
:102A5000C2EB00009CE50000E7EB0000B0EB0000DB
:102A6000B0E50000EAEB0000F0EB0000B5EB000081
:102A7000B9EB0000FBA90000C9370000F4EB00002F
:102A8000FCEB0000FAEB00009810002094100020EE
:102A9000CBEB000031AA0000FEEB000000EC0000D0
:102AA00073B542F20F738B4228BF0B4605680F4A7D
:102AB00004460521684606F031FE63680C495B68F0
:102AC00006460B22284607F07DFF636832466946BA
:102AD00028465B6807F076FF636806495B681B223F
:102AE000284607F06FFF02B070BD00BF2BF6000054
:102AF00082F7000066F70000074A00210123904298
:102B000006D8064A01B901231360054B18607047C7
:102B100040085B000121F2E740420F0094100020C2
:102B200098100020F8B5074F0D4604464618B442E9
:102B300001D12846F8BD14F8011BBB6801485B6849
:102B40009847F4E70CE20000014B03600020704757
:102B5000F8E5000007B51B491B4808F087F970BB72
:102B60001A49194808F082F948BB1949164808F073
:102B70007DF920BB1749144808F078F9F8B90146E7
:102B8000154A114808F059FCC8B9024613490E48C5
:102B9000012308F02CFD90B9012300930146022384
:102BA0000948EF2208F06CF848B9074808F091F896
:102BB00028B9054803B05DF804EB08F0BAB803B0D3
:102BC0005DF804FB580100205C0600204001002055
:102BD0002801002010010020E40000203DEC00004E
:102BE00080B505460E461746984606F055FA034648
:102BF00000F064FCDFF81890044649F800304246C3
:102C000030463946A84754F8090000F0F3FB00BFEE
:102C10000800000008B50348034A0021121A07F013
:102C200084FF08BDF0060020D01400200748084AA1
:102C3000084908B5121A07F07AFF0748074A0849F9
:102C4000BDE80840121A07F072BF00BF0000002064
:102C5000F0060020F8F7000000000020000000202F
:102C6000F8F700002DE9F047064600AF0C460029B2
:102C700036D0E9468AB0D1E90012A3686D462148F2
:102C8000E8464FF0050ACDE90501CDE9072348F8EC
:102C900010AF1D48424600234FF42151FFF7BAFC04
:102CA000CD46D4E903126369AD461848C5F810A0B3
:102CB000C5E90501C5E907231348002342464FF43F
:102CC0002151FFF7A7FCCD46E369114A0E480121C7
:102CD00007F062FEA3690F4A0B48012107F05CFE72
:102CE000012E07D1EFF305830B4A0748103B31460D
:102CF00007F052FE2146304604F0E2FFBD46BDE833
:102D0000F08700BF56EC000028E5000085EC0000CD
:102D1000B4EC0000C3EC0000F1EC000030BFFFF7A2
:102D2000FDBF00BF2DE9F0410B4EDFF8308006EB10
:102D30000807CC1B05463246094920460BF062F9CC
:102D4000A01942460021083C0BF06AF9AC6707F174
:102D50000800BDE8F08100BF00000000080000008E
:102D600068E5000010B5204C2049214807F0ECFE32
:102D7000A36A990136D51E481E4907F0E5FE1E20BC
:102D8000A36ADA0104D51A481B4907F0DDFE1F20AB
:102D9000154CA36A1B0304D51548184907F0D4FE47
:102DA0002120A36A590304D51148154907F0CCFE28
:102DB00022200D4CA36A9A0304D50D48114907F04F
:102DC000C3FE2320A36ADB0304D509480E4907F09C
:102DD000BBFE2420044A936A6FEA03436FEA13435D
:102DE000936210BD1D20CBE700ED00E004ED000074
:102DF00028E500001CED00002FED000049ED00006B
:102E000067ED00008CED0000A6ED000070B50646F1
:102E10000D46284C2849294807F096FEA36AD90494
:102E20003CD52648264907F08FFE1720A36A1A05CD
:102E300004D52248234907F087FE18201D4CA36AB9
:102E40009B0512D51D48204907F07EFEA36BA26AA0
:102E5000100409D51D4A1948012107F09DFD1EB136
:102E6000A36A23F40043A3621920124CA36A5905F4
:102E700004D51248164907F067FE1A20A36ADA053E
:102E80000ED50E48134907F05FFE1B20094A936ACE
:102E900043F47F43936200232B7070BD1620C5E777
:102EA000A36A9B04F2D505480B4907F04DFE1C2090
:102EB000ECE700BF00ED00E0D1ED000028E50000E8
:102EC000E7ED0000F8ED00000BEE000024EE00003E
:102ED00039EE000054EE00006CEE00002DE9F843DE
:102EE000804689461746354D3549364807F02CFE51
:102EF000AB6ADE0627D53449324807F025FE112497
:102F0000AB6A1D0704D531492E4807F01DFE122477
:102F10002A4DAB6A980718D52D492A4807F014FEA8
:102F20006E6BAB6A190646D52A4A264833460121FC
:102F300007F032FDB9F1000F03D0AB6A23F0800334
:102F4000AB62132403E01024DAE76FF015061B4D83
:102F5000AB6ADA0704D520491A4807F0F5FD1424B6
:102F6000AB6A9B0604D51D49164807F0EDFD1524F4
:102F7000124B9A6AD50602D49A6A90070AD55B6802
:102F8000190507D54146304600F0EAF910B180F343
:102F900009880224094B9A6A920642BF5A6A22F4AF
:102FA00000525A629A6A42F0FF029A6200233B7012
:102FB0002046BDE8F8836FF01506C2E700ED00E09B
:102FC0009BEE000028E50000B1EE0000F8ED0000E7
:102FD000E4EE0000FCEE000012EF00006CEE0000DA
:102FE0002DE9F041684B8AB0D3F8048000AF044665
:102FF000C8F30806002585F31188BFF36F8F02F030
:103000007F43B3F17F4F07D102F00C03082B12D19D
:103010005E495F4807F098FD00252C460023FB71B0
:10302000F31E092B00F28F80DFE803F00A85888108
:103030008D8D8D8D8D8B10074CBF0C460125EDE7D6
:1030400054495348504E07F07FFD0023FB71F36A4B
:103050009A0705D550494E4807F076FD00232DE02C
:10306000F36A002B01DA4D49F5E7F36A5B00F5D509
:103070004B49474807F068FD7369A26943F48073C0
:103080007361BFF34F8FBFF36F8F32F8023C7269E9
:1030900022F480727261BFF34F8FBFF36F8F03F41E
:1030A0007F42B2F55F4F2BD1DBB2022B28D12368D0
:1030B0003C4A3748012107F06FFC2368FA79DAB9F6
:1030C00007F1080604F1200C20686168324603C24B
:1030D000083464451646F7D17A6A002D50D0C2F301
:1030E000080121B96FEA52226FEA42227A6207F19F
:1030F00008011846FFF7B6FD2837BD46BDE8F08148
:10310000214B9A6AD2B22AB1FA1D01212046FFF75B
:10311000E5FE0EE09A6A12F47F4F04D0F91D0120FB
:10312000FFF774FE05E09B6AB3F5803F96D3FFF787
:1031300019FE0346C2E7FA1D0021E7E7F91D00204A
:10314000EEE7194987E7194A194B18F4F87FE84662
:103150008AB008BF13466A461649CDE905134FF4F5
:103160000073ADF82030103E134B079642F8103F25
:10317000074800234FF41151FFF74CFAC5466DE79D
:103180006FF30802B2E700BF00ED00E05FEF000060
:1031900028E500008AEF0000A1EF0000C2EF000068
:1031A000D0EF0000EFEF00000BF0000031EF000067
:1031B00046EF00002FF0000004000001044B5A69A4
:1031C00042F010025A615A6922F008025A617047AF
:1031D00000ED00E0EFF30880EFF3098101B57246DE
:1031E000FFF7FEFE01BD00BF0B4880F3088804F026
:1031F000AFF8202080F3118808484FF4046140188C
:1032000080F30988EFF314800221084380F31488C7
:10321000BFF36F8F00F06CF8004D0020403F00209E
:103220001EF0040F0CBFEFF30880EFF309808169F3
:1032300011F8021C0229FFD001B5724607F079FC93
:1032400001BD00BF40B2002807DB044A4109012349
:1032500000F01F00834042F82130704700E100E099
:1032600040B200280CDB4309064900F01F00203360
:103270000122824041F82320BFF34F8FBFF36F8FAD
:10328000704700BF00E100E0054B420900F01F005D
:1032900053F82220012303FA00F01040704700BFCA
:1032A00000E100E040B20028A8BF00F1604001F159
:1032B0000101B8BF064B4FEA4111ACBF00F56140B8
:1032C00000F00F00C9B2B4BF195480F80013704762
:1032D00014ED00E0044B054A23F07F039360BFF335
:1032E0004F8FBFF36F8F70470010000000ED00E0BC
:1032F00008B5FFF7EFFF0B4AD2F8883023F47003CC
:10330000C2F88830EFF3148323F0040383F31488A6
:10331000BFF36F8FFFF77EFCFFF788FC00F0B0F87B
:1033200004F0F2FD00ED00E042F8203C009B42F882
:103330001C3C0A49019B42F8183C029B42F8143C91
:1033400021F001014FF0807342F8043C42F8081C60
:103350000023203A0265C367704700BFE12B0000DD
:10336000094A0346906870B113F1160F806E05D0BC
:10337000A0F14002934205D3834203D2814228BF89
:1033800000207047002070478C14002008B51546B7
:103390000B4A0C4B9060826F1A600E4600F0A0F84A
:1033A0002C4686F309880020034B984720460021CD
:1033B00000220023014C20475FAB0000E12B0000FE
:1033C0008C140020C0100020014B10221A6170479D
:1033D00000ED00E0054B5A699B689A421FBF044A02
:1033E000536843F080535360704700BF8C14002033
:1033F00000ED00E0084B9B6883420BD1EFF305839F
:1034000043B1064B5A6842F080525A605A6A22F41D
:1034100000425A620AF0A1BB8C14002000ED00E0CB
:1034200014498A684FF030001044EFF3098C80E8AB
:10343000F01F202080F31288BFF36F8F0E4F4FF0E4
:1034400000664A698A603E60906F0C4C2060D06FC5
:103450000023D36780F3118804B5104600F040F8CC
:10346000BDE8044002F1300090E8F01F8CF30988B9
:10347000704700008C14002004ED00E0C010002014
:10348000044800232021C2180133302B82F8001396
:10349000F9D1704700E100E008B5EFF30583064A73
:1034A000103B02EBC30152F8330049688847BDE87E
:1034B0000840FFF78FBF00BF60E2000001480068CE
:1034C00070470000C0100020024B034A034801214E
:1034D00000F08AB80000042000000020F8E5000099
:1034E000836E054A403B1360044B4021C2E901133F
:1034F0001046012100F082B8C410002000000B1516
:1035000008B503461048D0F89020C2F30722013ACC
:10351000934207D90D480E4A012107F03DFA6FF09A
:10352000150008BDC0F898300A6822F01F021A433F
:1035300042F01002C0F89C208A6842F00102C0F8F4
:10354000A0201846EDE700BF00ED00E008E5000010
:1035500046F00000F0B50E4685B01F460446002533
:10356000B5420DDA606810B397B1431E18420AD015
:10357000104A11482B46012107F00EFA6FF0150290
:10358000104605B0F0BD1F28F2D921680B42EFD1DB
:103590002368019307F0F7FAA36801A90343D0B2A7
:1035A0000393FFF7ADFF10F1160FE7D0421C013572
:1035B0000C34D5E76CF0000008E50000044B052250
:1035C000C3F89420BFF34F8FBFF36F8F704700BFD6
:1035D00000ED00E0BFF35F8F024B0022C3F89420A0
:1035E000704700BF00ED00E010B5034C01232278C6
:1035F000FFF7B0FF207010BDC314002008B50B4AC0
:1036000000231278FFF7A6FF10F1160F07D0084A23
:103610000021D2F89030C3F30723984200DB08BDA5
:10362000C2F89800C2F8A0100130F2E7C3140020DD
:1036300000ED00E02DE9F0435D485E49D0F89030A0
:103640000C68C3F307239C4285B000F2AE80FFF7FD
:10365000C1FF49680022944201F10C011AD1564F72
:10366000564D3C706846FFF76FFA554C554E8146F3
:103670004FF00008C14520D13B784D490020D1F8DA
:103680009020C2F307229342C0F28980FFF796FF91
:10369000002050E0C0F8982051F80C3C23F01F03A4
:1036A000134343F01003C0F89C3051F8043C43F03E
:1036B0000103C0F8A0300132CDE7009800EB0811FB
:1036C0004FEA081CCB682340B3F5000F49D00BD854
:1036D000B3F5001F32D0B3F5800F37D0B3F5801F9C
:1036E00014D008F10108C5E7B3F1007F42D0B3F16F
:1036F000805F48D0B3F1807FF3D150F80C308868F8
:103700004A6807F040FA40F0887009E050F80C3041
:1037100088684A6807F037FA40F0885040F4302053
:10372000039001A93878CDE90123FFF7E9FE0028CD
:1037300031DA6FF0150005B0BDE8F08350F80C30B9
:1037400088684A6807F01FFA3043E9E750F80C3000
:1037500088684A6807F017FA40F0C06040F400300B
:10376000DEE750F80C3088684A6807F00CFA40F041
:103770008270D5E750F80C3088684A6807F003FA81
:1037800040F48020CCE750F80C3088684A6807F095
:10379000FAF92843C4E73B7801333B70A1E7C1F84D
:1037A0009830C1F8A000013369E74FF0FF30C2E75D
:1037B00000ED00E004E60000C31400200000021148
:1037C0000000F0FF00000811F0B587B007460E4674
:1037D00014460021102268461D460AF021FC0223EF
:1037E0008DF802302A46054B019321466846CDE903
:1037F000047605F0BDFF07B0F0BD00BFA7AB000029
:1038000008B5024B1B689847002008BDD010002067
:10381000034B044A1860937843F002039370704797
:10382000D01000207001002008B50649064821F09C
:103830000701C1F1005202F5802206F040FB002092
:1038400008BD00BFCFA00020D410002070B5416992
:10385000867A0B4D044659B1437ADB0706D42423FC
:1038600003FB0653DB691B689B6898470023636171
:103870002420214600FB0650BDE870400AF0A5B8A0
:1038800038060020024B242202FB0030704700BFA4
:10389000380600202DE9F04385B0054668460391BF
:1038A00090461C460AF0D8FADDE90067EFF311896B
:1038B000202383F31288BFF36F8F6B8A002B41D0D4
:1038C0002A8A9A4225D900220023284604F074FD52
:1038D0000446F0B189F31188BFF36F8F039B002B6F
:1038E00041D032463B4668460AF0DBFAA27A264BC4
:1038F000242101FB02332046DB691B6803A91D68F4
:10390000DDE90023A847606170BB2046FFF79EFFFA
:1039100024E0698A4B1E6B8289F31188BFF36F8F95
:103920002B7D2A8A2C6A1B3323F00303521A02FBD5
:103930000344154B154AEB1A9B105343A3722B7D7E
:10394000E372CBE789F31188BFF36F8F23464246BA
:10395000284604F031FD04460028BFD1002420464B
:1039600005B0BDE8F0836361012300252381039B3B
:103970006382E27A6560294604F118000AF050FB80
:1039800063692582E360EAE738060020398EE33870
:10399000F8B5124D0024242600B9F8BD00F1080244
:1039A0004768BFF35B8F52E8003F591E42E8001C96
:1039B000BCF1000FF7D1BFF35B8FDBB2012BECD171
:1039C000837AC46006FB035344609B6913B1984734
:1039D0003846E1E7FFF73AFFFAE700BF3806002074
:1039E0000C4B0122C3F840254FF080434FF080512B
:1039F000C3F87825D1F83001082805D1D1F8341161
:103A0000022908BFC3F838260122C3F88025002008
:103A1000704700BF00E0014048B1054B054A1B68F4
:103A2000B3FBF2F35843044B43F0010318477047CC
:103A30006C04002040420F0070E500004FF080430E
:103A4000D3F84036DB072ED54FF01023D3F80433DC
:103A500003F00703072B26D1134A0123C2F80435CC
:103A6000D2F80034002BFBD04FF01021D1F80433F2
:103A700023F0070343F00403C1F804330023C2F822
:103A80000435094AD2F80034002BFBD0BFF34F8F26
:103A90000649074BCA6802F4E0621343CB60BFF3E8
:103AA0004F8F00BFFDE7704700E0014000ED00E0F0
:103AB0000400FA052DE9F04190F8283003F01F03C7
:103AC000012B04460F4600F128062FD0022B18D0F8
:103AD0008BB394F82910204607F06EF9024678B3AC
:103AE000304607F053FA1D4D002834D113693BB31B
:103AF0003A463146204698470346FFF7DFFC2B50F5
:103B000024E0818DC9B207F038FD05460028E0D0D9
:103B1000304607F03BFA024668688368CAB99B687A
:103B200073B13A463146BDE8F0411847818DC9B2BC
:103B300007F00AFDE9E790F8291007F041FDE4E7F6
:103B4000FFF7BCFC054B6FF085021A500020BDE862
:103B5000F081DB68E4E7D368C9E700BF0C00000030
:103B60002DE9F04F0B7E33F0800893B004460E46EB
:103B7000154640F095847AB10846FFF709FF737E39
:103B8000DA0703D49B0711D5337E7BB9204613B0E7
:103B9000BDE8F04F07F026BA497E8F0700F12809EB
:103BA00008D5802B0CD13046FFF7F2FE404613B00B
:103BB000BDE8F08F880700F03B84002B40F038848C
:103BC000CA0736D5338A082B0ED1F2681368A36270
:103BD0005368C9F804303146002007F007F805465D
:103BE00038B1FFF7D5FEE6E03046FFF7D1FE0025FD
:103BF000E1E0484607F0CAF938B1E18D29B1204625
:103C000007F05CFE05460028F1D0FFF757FC94F85A
:103C10002880B54F002318F0600FC351C8F341133B
:103C200009D0032B40F0C481FFF748FC6FF08503F7
:103C30003AE03546E9E7484607F0A8F994F8293014
:103C4000002840F05381013B0A2BEDD801A252F825
:103C500023F000BFCB3D0000293C00005F3E000088
:103C6000293C0000813C0000293C0000293C000068
:103C7000293C0000F13C0000293C0000533D0000BD
:103C8000618D7F29D0D8A38D002BCDD1E38D002B62
:103C9000CAD118F01F0FC7D194F83030022B05D1CC
:103CA000FFF70CFC4FF0FF333B5076E0A06903694F
:103CB00093F880301B0707D5C9B207F0C9F98046D1
:103CC00028B1002D6CD171E7012384F8393094F8C4
:103CD0003030012B0AD1638D43B984F83030FFF7BF
:103CE000EDFB3B58002B00F0858056E00123F4E704
:103CF000204606F0C0FF628DFF2A014694D8E38D6E
:103D0000002B91D194F82830D8068DD194F830301A
:103D1000002BC5D02AB1D2B2204607F03BFB0028C9
:103D2000BED0618D94F838308B42D8D0C9B22046CD
:103D300007F037FB80460028C3D1628D002A14BFEC
:103D40000223012384F830300521204607F046FE87
:103D5000C5E708F01F08B8F1010F7FF465AFE38DE8
:103D6000002B7FF461AF628DFF2A3FF65DAFA18D1E
:103D7000FF293FF659AF94F83030022B90D1D2B2E0
:103D8000C9B2204607F01DFD10F1020F804640F039
:103D90001481FFF793FB47F8008065B14FF00008EE
:103DA0002846FFF7F5FDB8F1000F7FF4FFAEFFF7EF
:103DB00085FB3B58F3B1484607F0E8F80346A06995
:103DC000002B00F06183802166E3E38D002B7FF4FC
:103DD0002BAF94F83030002B3FF462AF012BA18D54
:103DE00002D100297FF45CAF18F01F0810D0B8F1A1
:103DF000020F1AD0737EE28DD90700F1DA82002A11
:103E000040F0ED82204607F0D7F80028D3D1BDE678
:103E100000297FF445AF638D012BEBD194F86C3012
:103E200061F3C30384F86C30E4E7B4F82AA0BAF174
:103E3000000FDFD15FFA81F84146204607F0B4FD5C
:103E40000346FFF73BFB3B50013302D14FF0FF38F5
:103E500037E752464146204607F09EF83FE7E38D9C
:103E6000002B7FF4E1AE628DA38D022A5FFA83FA04
:103E700011D108F01F085AEA08087FF4D5AEA069EE
:103E80000122190A07F0C1F800287FF4CDAE012302
:103E900084F8393023E794F8301000293FF400AF5C
:103EA000012902D1002B7FF4FBAE18F01F0811D0BE
:103EB000B8F1020F9ED1002A9CD15146204607F04E
:103EC0005EFD0346FFF7FAFA3B500133BED00122F4
:103ED0005146C0E7002B7FF4E3AE012A8AD194F863
:103EE0006C3043F008039DE70C0000000A2B3FF6FE
:103EF0009BAE01A252F823F0253F0000293C0000B0
:103F0000293C0000293C0000293C0000293C00001D
:103F10009F3F0000293C00002F430000293C000087
:103F200059430000E38D022B7FF47EAE94F83030CD
:103F3000002B3FF4B5AE012BA18D02D100297FF4F7
:103F4000AFAE18F01F0811D0B8F1020F1CD04FF01F
:103F5000000805F10C0A504607F010F8E38D98426E
:103F600018D2FFF7ABFA6FF00B039DE600297FF440
:103F700097AE94F86C304FEA930808F00208C3F348
:103F8000001348EA0308E4E7C9B2204607F01BFD26
:103F90008046DEE74146504606F04BFE9FE6B4F809
:103FA0002AA018F01F0F4FEA1A235FFA8AFA09D0E5
:103FB00029462046FFF77EFD8046B8F1000F7FF4CA
:103FC00080AE8CE6013B0E2B3FF62EAE01A252F8DE
:103FD00023F000BF1140000051400000FB400000F2
:103FE000293C0000293C0000F3400000F3400000A1
:103FF000293C0000293C0000293C0000293C00002D
:10400000293C0000293C0000293C00003D42000002
:1040100005F10C08404606F0B1FF83462046B4F88F
:104020002EA006F028FE20B101287FF4FDAD616FBF
:1040300000E0216F002900F037820A78DA4528BFB6
:10404000DA46524528BF5246404606F0E1FD46E6B4
:10405000204606F010FE0AF1010201900146D2B29C
:10406000204607F071F9804600283FF4DDAD05F1E8
:104070000C0AD0F804B0504606F080FF9BF80020F0
:10408000824228BF02465946504606F0C1FDD8F884
:104090000CB0BBF1000F09D1298AE38D99427FF65C
:1040A0001EAEC91A504606F0CEFD18E6DBF8040035
:1040B00083681B6B13B9DBF800B0EAE701999847F6
:1040C0000028F8D0A0F1040858F8041F0029F2D005
:1040D0000A78002AEFD05046CDE9022106F04EFFC3
:1040E000029A0399904238BF82B2504606F090FD82
:1040F000EAE7204606F0BFFD96E55246032120463A
:1041000006F09AFE824600283FF48EAD06F031FF9D
:10411000B4F82EB09AF81530C8B99AF814808DF812
:1041200028808DF82930DAF8103005F10C0A1B8848
:10413000ADF82A30504606F021FFC3455A4628BF45
:104140004246824228BF02460AA950467DE7DAF875
:1041500008208DF81530B24B1340B24A4FF00008DA
:1041600093428DF8148058D1102106A808F0D7FB8F
:10417000021EFFF659AD0AA9102ADFF8ACE20DF1D4
:10418000180C084628BF1022424501F1020133D81D
:10419000920002325FFA82F88DF81480034605F12E
:1041A0000C0A5046029306F0E9FED845424628BF65
:1041B0005A46904228BF104602288346804628BFB0
:1041C0004FF0020B5A46A8EB0B0805A9504606F023
:1041D0001FFD4FEA58030193029B9B4603EB5802D5
:1041E000934521D118F0010F3FF479AD019A995C04
:1041F000504606F016FD72E51CF8013B4FEA131A13
:1042000003F00F031EF80AA01EF8033001F802ACF9
:1042100001F8013C08F10108B6E79AF81480DAF8D1
:1042200010308DF81480BAE71BF8011B5046CDE919
:10423000023206F0FEFCDDE90232D1E7204606F04C
:104240001AFD38B101282CD0FFF738F96FF085033B
:104250003B5044E5236F002B00F026815B88B3F5CB
:10426000007FF1D9714B0A9300238DF82C30E36C59
:1042700004F14C0B9B4508BF0023BDF82A10A3B1E5
:104280005A7D0F2A08D11A7D0A44ADF82A209DF8DC
:104290002C2001328DF82C20226D934203D01B6814
:1042A000EBE7636FD7E7BDF82A10019105F10C0A1F
:1042B000504606F063FEB4F82E800199884528BF69
:1042C0008846804528BF80464246052A28BF0522E9
:1042D0000AA95046019206F09BFC019AB8EB02082D
:1042E0003FF4FDACE36C5B453FF4F9AC002B3FF4CD
:1042F000F6AC5A7D0F2A14D11A7D196901934245F3
:1043000028BF4246504606F083FC019B1A7D424579
:1043100094BFA8EB0208A8EB0808B8F1000F3FF41F
:10432000DEAC226D93423FF4DAAC1B68DEE794F812
:104330003030002B3FF4B4ACE38D012B7FF474AC30
:1043400005F10C08404606F019FE00283FF409AEBE
:1043500094F8381040464CE708F01F08B8F1010FF8
:104360007FF49EAC204607F003F800283FF498AC99
:10437000B4F82CA0BAF1FF0F3FF656AC43681B7996
:104380005345FFF451AC5FFA8AF30F2B3FF64CAC68
:10439000E38D012B7FF448AC05F10C08404606F094
:1043A000EDFD00283FF4DDAD04EB0A0393F83A106D
:1043B000D0E7484606F0EAFD0146002877D1002AFA
:1043C0003FF420ADA06908F08CF8014600283FF4C6
:1043D0000EAC204613B0BDE8F04F07F074BA484663
:1043E00006F0D4FD002865D12846FFF7D1FA09E58B
:1043F000A069036993F8801011F004017FF4C6AB43
:1044000008F083F8064600283FF4D5AC0146204664
:1044100007F059FA00283FF4B9AB3046FFF7E1BB8B
:1044200000FF020000030200CAF70000050F0500AC
:104430004A077FF5DCAB002B3FF4B5AB3046FFF706
:10444000A7FA94F83930002B3FF4B0AB94F8293038
:10445000052B05D1618DA069C9B206F0F9FD0546AD
:1044600094F82930032B09D1638D022B06D1A18D3D
:10447000A0690022090A06F0C8FD0546002384F859
:104480003930A846FFF792BBE38D002B3FF49BAC7D
:10449000291E18BF0121C90107F05DFFFFF776BB98
:1044A0006FF00408FFF782BB6FF0150809E4002ADB
:1044B0003FF4A8AC2946204607F005FA002897D01B
:1044C0002846FFF78EBB00BF0B78062B10B414D123
:1044D0000369D3F89C20EFF31184202383F312881F
:1044E000BFF36F8F4B6800201860506A58B9C2E95B
:1044F000083384F31188BFF36F8F044810BC002287
:10450000002309F0C2B903605362F2E7BC05002042
:104510002DE9FF4120264FF0FF335E484FF0FF3278
:1045200001A903F023FE039B1B69D3F89C40236A77
:1045300093B1EFF3118286F31288BFF36F8F216A74
:1045400029B1606A0B682362814208BF636282F30B
:104550001188BFF36F8FC9B99DF80430062BDAD0EC
:10456000072BD8D801A252F823F000BFBF450000A6
:10457000B3450000DF450000C545000003460000CC
:10458000F9450000174500008D4600000B7ED1F86C
:104590001E205D06204609D1FFF7E2FA02460028F8
:1045A000C5D00721204607F019FAC0E706F0DCFF66
:1045B000F4E700220121204607F010FAABE70022C1
:1045C0001146F8E794F86C3043F0040301A984F82D
:1045D0006C30204606F064FD00220321EBE794F8DE
:1045E0006C3023F0040301A984F86C30204606F0F7
:1045F00057FD00220221DEE701A9204606F050FD0A
:1046000089E794F86C30A76923F0040384F86C30D0
:10461000D7F808803B69BFF35B8FD3F8A030BFF3B6
:104620005B8F9A072FD5D8F83C3038469847D8F892
:104630002430002138469847D8F84030054638469F
:104640009847ADB92946204606F0ABFE054678B935
:10465000A06907F079FF831E5842584194F86C30E6
:1046600084F8305023F0680343EA401384F86C3038
:1046700000220421204607F0B1F9002D3FF44BAF92
:104680002A46072197E74FF0FF35F1E7029A062106
:1046900091E700BFBC05002030B589B0002200239F
:1046A000CDE9062300246FF00703CDE90334CDE9FB
:1046B00001441A4B1A4900944FF48062194804F0DF
:1046C000D5F91949174809F043FA184B18498B4294
:1046D00007D3184B184900208B4210D3002009B093
:1046E00030BD03F11402BFF35B8F52E8000F42E8C4
:1046F0000045002DF9D1BFF35B8F1833E7E703F1D5
:104700001402BFF35B8F52E8004F42E80005002D12
:10471000F9D1BFF35B8F1833DEE700BF114500000E
:10472000C0380020C80C0020BCF00000D8060020D3
:10473000F0060020F0060020F006002038B5024602
:1047400009490546806907F065FF044648B985F8C0
:104750003800284606F0FBFC044610B1A86907F0B3
:104760008CFF204638BD00BFC944000070B5084C1E
:10477000084E0546B44202D30024204670BD63684B
:1047800028461968FCF7D6FC0028F6D01834F1E763
:10479000D8060020F006002070B50646EFF3118120
:1047A000202383F31288BFF36F8F1B4D2A6881F398
:1047B0001188BFF36F8F526892F86C20D20705D42E
:1047C000BDE870402122002304F064B8EFF31182A9
:1047D00083F31288BFF36F8F2C682CB1696823684C
:1047E0002B608C4208BF6B6082F31188BFF36F8F20
:1047F00044B1606804F10801C3699847074821463D
:1048000008F0E4FF2B6833B130460022BDE8704069
:10481000002304F00BB870BDE010002064050020F8
:1048200030B585B0CDE900120546002214480023BA
:1048300003A903F007FC0246E8B9039BDDE9000188
:104840005D60083383E80300EFF31180202383F3D6
:104850001288BFF36F8F039B1A600A4A516861B9CF
:10486000C2E9003380F31188BFF36F8F064800223E
:10487000002303F0DBFF05B030BD0B605360F1E7B0
:1048800064050020E01000200000002038B5134629
:104890004A78046945682069202A08D0222A1AD05B
:1048A000FEF70CFE134B6FF085021A5011E0CA8818
:1048B000072AF5D16BB1DB681A6842609A880281D9
:1048C0009B79837207F0ABF822460821284607F04F
:1048D00093F8002038BDCB88002BE1D14B88838131
:1048E000C3F3400203F00103027643762246092116
:1048F000ECE700BF0C00000008B513464A78212AF7
:1049000014D133B9FEF7DAFD0B4B6FF00B021A50DE
:104910000AE0CA8801690969072A28BF0722043109
:1049200003F10C0006F074F9002008BDFEF7C6FD87
:10493000014B6FF08502EAE70C00000073B50469D3
:104940008DF807102025EFF3118685F31288BFF349
:104950006F8F0122206C0DF1070105F02DFF86F30A
:104960001188BFF36F8F012810D009F0EBF8B8B1B0
:104970000F4BBFF35B8F012253E8001F002903D1C7
:1049800043E800200028F7D1BFF35B8F237F2BB1D2
:104990002122002304F1480003F048FF02B070BD5B
:1049A000A37E002BE4D00021212009F0BFF9CAE743
:1049B000E810002038B505690E492B6C0024C3E9C6
:1049C0000144DC60AB6B05F14800C3E90144DC60E5
:1049D00009F09FF805F17800074909F06EF80749DA
:1049E00005F1280009F069F8284607F018F8204674
:1049F00038BD00BFCDBB0000A7BD000033BE000026
:104A0000F8B5036900AF0C4603F1A005BFF35B8F57
:104A1000D3F8A030BFF35B8FC3F38003994218D162
:104A2000184A194B6E4688B0002918BF13466A46CB
:104A30001649CDE905134FF40073ADF81C30144B43
:104A400042F8103F134800234FF4E451FDF7E2FD14
:104A5000B546BFF35B8F5CB155E8003F43F00403FC
:104A600045E80032002AF7D1BFF35B8FBD46F8BDA1
:104A700055E8003F23F0040345E80032002AF3D054
:104A8000F6E700BF11F20000D4F00000DBF00000F8
:104A90000300000148E500002DE9F0470546D0F885
:104AA00008A0894690461F4607F004FB0446C0B1A3
:104AB000067DF30709D5037E1648174A012105F044
:104AC0006BFF6FF07700BDE8F0873B4642464946F2
:104AD00007F0A8FA40B9237E104A0E48012105F0DC
:104AE0005BFF6FF01200EEE79DF8203084F819802C
:104AF00026F00606678323772675DAF818302146F4
:104B000028469847227DB0FA80F35B0963F30002E0
:104B10002275D8E748E50000EDF0000007F100003D
:104B200070B50546866807F0C5FA0446D0B1037D26
:104B3000DB0708D4037E0D480D4A012105F02CFF48
:104B40006FF0770070BD0146F3692846984738B189
:104B5000237D03F00103227D63F300022275F1E758
:104B60000346F8E76FF01200ECE700BF48E50000ED
:104B700029F10000F8B587680546FB6B0C4698479D
:104B8000286907F085FAD0B12146284607F092FA45
:104B90000646B8B1037D9B0705D0037E0B4A0C483F
:104BA000032105F0F9FE346824B1BB68314628467C
:104BB0009847044628463B6C98472046F8BD4FF07E
:104BC000FF34F7E76FF01204F4E700BF44F1000090
:104BD00048E500002DE9F341D0F808801746D8F8E1
:104BE0003C3005460E4698470C48002200233946C3
:104BF000FEF750FE044670B9094A0A4800963B4643
:104C0000012105F0D3FE2846D8F8403098472046C9
:104C100002B0BDE8F0810676F5E700BF3806002057
:104C200065F1000048E5000010F0080F0B4B42B2A0
:104C30000CD100F00F00002A4FF0140202FB0033E9
:104C4000B4BFD3F80806D3F808077047002AB4BFEA
:104C5000D3F8A806D3F8A807704700BF0070024039
:104C6000F8B50246EFF31181202383F31288BFF3D6
:104C70006F8F00F0080507F039FD012484405706C6
:104C80006FEA04061BD0D5B9174F3B6823FA00F032
:104C9000C00714D533403B6053B2DB4322F08000A1
:104CA000DB0F00F2DA301B0103EB40030F48C0F8C2
:104CB0000038D0F8043843F00203C0F804380C4838
:104CC00003683340036035B90A480368120654BFCD
:104CD000334023430360054BC3F86C4481F31188D0
:104CE000BFF36F8FF8BD00BF441100200070024079
:104CF000481100204C110020EFF31180202383F392
:104D00001288BFF36F8F0A4BD3F8001C032261B9DE
:104D100049F27531C3F8001CC3F8142DC3F8001C08
:104D200080F31188BFF36F8F7047C3F8142DF7E736
:104D300000E00640EFF31180202383F31288BFF3D5
:104D40006F8F0A4BD3F8001C61B949F27532C3F872
:104D5000002CC3F8141DC3F8002C80F31188BFF396
:104D60006F8F70470022C3F8142DF6E700E006406D
:104D700070B5024607F0BAFCEFF31185202383F3E8
:104D80001288BFF36F8F531E0124062B04FA00F420
:104D90000FD80E4E0E4B31681B680B43C34013F007
:104DA000010306D10B4802F59472214340F82230EA
:104DB0003160094A136823431360084B8022C3F80B
:104DC000042185F31188BFF36F8F70BD441100205B
:104DD0004C110020007002404811002000E100E06A
:104DE000F8B50306044623D410F0080720D100F0DC
:104DF0000F02920002F1804202F51C32D2F84434D4
:104E0000B3B1EFF31186202383F31288BFF36F8FC2
:104E100007F06CFC084DC2F8A074012303FA00F1FE
:104E20002B6823EA01032B6086F31188BFF36F8F91
:104E3000024BC3F81845F8BD4C1100200070024029
:104E400010B591F91800154B0A7E0028B4BFD3F8AD
:104E50001045D3F8144502F00F020123934023427A
:104E60000DD10E4A0028B5BFD2F81005D2F81405AE
:104E700003430343B4BFC2F81035C2F814350B7EA8
:104E80001A0709D4054AC2F80C3543F48073C2F8F6
:104E90000C35087EFFF7A4FF002010BD0070024013
:104EA0000B7E064A13F07F0F0BBF012343F4807380
:104EB0005365C2F818350020704700BF00700240EB
:104EC00070B506460D4607F0F5F8044607F0FBF806
:104ED00028BB204607F01AF908B3802D16D1437E6F
:104EE0009A0744BF0E4A15705B070FD50D4B1B7810
:104EF00013B90D4B01221A65204607F003F9002271
:104F000001463046BDE8704007F019B92846FFF762
:104F10002FFF20460121BDE8704007F0D8B870BDD2
:104F2000C6140020CB1400200070024038B50C4697
:104F300007F0C0F8054607F0C6F8B8B9284607F0EC
:104F4000E5F898B14CB9437EDA070FD49B0704D536
:104F5000074B1C70074B0122DA642046FFF708FF5D
:104F600028460121BDE8384007F0B1B838BD00BF80
:104F7000C61400200070024008B5054A0548032108
:104F800007F0BCFB08F05DFB02F024FE002008BD2A
:104F900093F1000050E5000010B54468206801F06E
:104FA000ADF8104B1860104B1B782BB10F4B002243
:104FB0001868114607F0B7F8002201212720FEF7F4
:104FC00071F9201D02F0D4FD04F1080002F00EFE7C
:104FD00008F030FB064A0748032107F08FFB00204A
:104FE00010BD00BFFC100020C8140020501100208C
:104FF0009CF1000050E50000012810B503461AD0CE
:1050000002280AD000BB144B02460146186807F07C
:105010008AF8124B01221A700CE0114B114C00223D
:105020001A70114BC4F800332720FEF70BF9012347
:10503000C4F8043510BD084B00220146186807F07B
:1050400072F8064B0022E6E7084A0948BDE810401E
:10505000012105F0A1BC00BF50110020C8140020A0
:10506000C714002000700240FDFFDF01A8F100001E
:1050700050E500000146014808F0A7BF24060020C3
:1050800008B5054B1970054B1B7813B10420FFF7C9
:10509000F1FF002008BD00BFC9140020CA14002081
:1050A00010B50469087E0D4A07F020FB012303FABE
:1050B00000F013680343136003F0CAFF4020FFF7BA
:1050C000D9FF4FF0FF324FF0FF3304F18401044861
:1050D00003F020FC03F0D0FF002010BD40110020A1
:1050E000300600202DE9F043064689B007694D4A95
:1050F0004D48032107F002FB4C4B1E6007F1840072
:1051000008F0D2FB00220023CDE9062300246FF033
:105110000703CDE90334CDE90144454B45490096E9
:105120004FF40072444803F0A1FCDFF810814449B9
:10513000414808F00DFDD8F81020424B134043F4CD
:10514000820343F04003C8F81030C14688F8184085
:105150004146304606F0C0FF3B4B3C4A054678B11D
:105160003B4A3148012107F0C9FA284609B0BDE899
:10517000F083016919401143016108F12008E5E756
:105180000134092C10D009EB4410082C817C41F02B
:1051900040018174EDD1D9F810112E4808402E49F4
:1051A0000143C9F81011E8E72C4C2D4B226913403C
:1051B00043F4041343F0400323618046A14668F0A2
:1051C0007F0121763046214606F086FF1E4B1F4A9E
:1051D00005460028C4D108F10108B8F1090F17D01D
:1051E00009EB4810B8F1080F817C41F0200181746F
:1051F00008D1D9F810111748084017490143C9F8D8
:10520000101103E001691940114301612034D6E710
:1052100097F8803023F0760343F0760387F88030E8
:10522000A3E700BFBFF1000050E5000050110020CF
:105230000D530000003D0020500D0020741200208E
:10524000C7F100000000BEFF0000F9FF40000600AB
:10525000D0F100000000F7FFFF010800541100200A
:105260000000DEFF10B50C462046114606F050FF48
:10527000207E07F03BFA0146034807F041FA01207F
:10528000FFF7F8FE002010BD9813002008B5064A6D
:105290000B7EC2F80C3543F48073C2F80C35087EDF
:1052A000FFF79EFD002008BD0070024010B50C7E87
:1052B0004FF0FF324FF0FF33114803F0E7F820467C
:1052C000FFF7CEFC04F00F02012393400D4A14F0C7
:1052D000800F14BFD2F81015D2F814156FEA03032B
:1052E00015BF0B400B40C2F81035C2F81435044806
:1052F00003F098F8044B8022C3F80421002010BD6D
:10530000E40500200070024000E100E02DE9F04FCC
:10531000B44D85B004464FF0FF384FF0FF390022FE
:10532000CDE900894FF0FF31AF4808F055FEAE4897
:105330004FF0FF3108F04CFE0746380733D5AB4A33
:10534000AB48032107F0DAF9AA4842464B4603F07E
:105350009DF8EFF31182202383F31288BFF36F8F40
:10536000A54B1B787BB1D5F8003413F400730AD138
:105370000121C5F82C15D5F82C15D5F80014890590
:1053800048BFC5F82C3582F31188BFF36F8F994859
:1053900003F048F801212046FFF732FB00220321E9
:1053A000204606F0C0FEFE060DD5944A9048032123
:1053B00007F0A4F900212046FFF722FB002202217A
:1053C000204606F0B0FEB8060DD58D4A8848032168
:1053D00007F094F900212046FFF712FB002202217A
:1053E000204606F0A0FEB9075CD4FA0710D5BFF33B
:1053F0005B8F844B002253E8008F43E80021002993
:10540000F9D1BFF35B8F0126B8F1000F40F0AB80FC
:1054100079072FD5D5F88004C0B28DF80800D5F8EB
:105420008414C9B28DF80910D5F88834D5F88C24C5
:1054300043EA02239BB2ADF80A30D5F89024D5F8A0
:10544000946442EA0622ADF80C20D5F89824D5F8E9
:105450009C6442EA062292B26B4EADF80E20002800
:1054600040F09A80052940F0978001213170002A90
:1054700000F09E807B067FF54EAF206984304FF0B0
:10548000FF324FF0FF3302F0D5FE604E3168002945
:1054900040F0CA805E4803F003FA2069843002F0CD
:1054A0003BFF38E75B4BBFF35B8F002253E8008F75
:1054B00043E800210029F9D1BFF35B8F4FF0010BC6
:1054C000B8F1000F91D098FAA8F3B3FA83F30F2B39
:1054D0001E46C6BFA3F11006F6B246F080060BFAD0
:1054E00003F328EA03083306314620461FD506F0A9
:1054F000E1FD824606F006FE814650B9464A3C4828
:105500003346012105F048FA31462046FFF7D8FC22
:10551000D6E70021504606F0DAFD00224946204633
:1055200006F00DFE802E08BFC5F850B0ECE706F07F
:10553000C1FD824606F0E6FD814650B9374A2C4847
:105540003346012105F028FA31462046FFF7EEFCEC
:10555000B6E75046002106F0BAFD00224946204633
:1055600006F0EDFDF0E798FAA8F3B3FA83F30F2BFA
:105570001946C6BFA3F11001C9B241F0800106FA75
:1055800003F30A0628EA0308204602D5FFF798FC31
:105590003AE7FFF7CBFC37E7214900233370D5F812
:1055A0007024097891420AD11E4B00221A7013E030
:1055B00003F07F03ADF80A30ADF80C20F4E7194989
:1055C00001220A7032704FF4A062ADF80820D5F8BD
:1055D0007024ADF80A20039302A9204606F0D6FDF8
:1055E00048E700BF0070024024060020ECF10000F4
:1055F00050E50000E4050020C714002003F200007D
:1056000019F2000098130020CB1400204011002054
:10561000300600209413002031F200004AF200000E
:10562000C9140020CA14002091FAA1F7B7FA87F72D
:105630000F2F3946C6BFA7F11001C9B241F0800152
:10564000204606F037FD804690F818904FF0FF3264
:105650004FF0FF33134802F019FF4846FFF700FBF5
:10566000104802F0DFFE104B8022C3F804214146AF
:10567000204606F07CFD0021404606F028FDBFF3E1
:105680005B8F0123BB40094ADB4352E8000F1840FF
:1056900042E800010029F8D1BFF35B8F3268134064
:1056A0003360F3E6E405002000E100E094130020FD
:1056B0004FF08053D3F83031082B02BF024B002249
:1056C000C3F81C2C704700BF007002402DE9F04168
:1056D00005464FF0FF324FF0FF33414802F0D6FE4F
:1056E000404B8022C3F884212720FDF7CDFDA8B1CF
:1056F0003D4F3E4B3C681B686FF30F041C434FF05B
:105700000108002C37D13A4E40F2FF133B602720AE
:10571000C6F80445FDF7A4FDC6F80043354A1378E2
:105720008BB1334B0021C3F808110121C3F80026C7
:10573000C3F804165960D3F808110029FBD00021E2
:10574000C3F8081111702A4B0024C3F80045FFF775
:10575000AFFF234802F066FE21462846FFF7E0F936
:10576000F0B1254A2548012106F0C8FF6FF0040575
:105770002846BDE8F08194FAA4F6B6FA86F60F2E14
:105780003346C6BFA6F11003D8B243F0800003072A
:1057900001D4FFF765FA08FA06F624EA0604B0E732
:1057A00028468021FFF7BCF905460028D9D1144BC3
:1057B00014491E68304604F077FF10F1780F044654
:1057C00003D1304604F04CFF0446002CD0DA0E4AD8
:1057D0000A482346012105F0DFF82546C8E700BF47
:1057E000E405002000E100E04C11002048110020F9
:1057F00000700240C414002067F2000050E5000071
:10580000FC100020EC1000208AF200002DE9F04F7F
:10581000AD4BDFF8B8A2D3F85421AD4F87B00AB32F
:105820000022C3F85421D3F8042391021AD5D3F8E7
:10583000C034002B14BF4FF001224FF48072A54BEF
:105840009B683BB99AF8000006F050FF01238340A3
:1058500022EA03023B6813439F4A3B60136823F02C
:1058600001231360984BD3F8604134B10022C3F890
:105870006021D3F86C44C3F86C44D3F828214AB1B2
:105880000022C3F82821954B187806F02FFF01233A
:1058900083401C439AF800509AF900802A0700F1CF
:1058A0000B81B8F1000FB4BF8D4B8E4B05F00F028A
:1058B000920013441A684AB300221A602846FFF780
:1058C000B3F9894B1A7800F0010050401870FFF7C7
:1058D000EFFE864B28461A6806F008FFC240D30741
:1058E000064600F12381B8F1000F80F20F81882D68
:1058F00000F00C81784A01231168B3400B43136018
:1059000081238AF80030734802F08CFD8CB13B682B
:10591000714ADFF8DC9124F001210B433B601368EE
:1059200023EA01031360A4B24FF00108002C40F0F9
:105930000381654BD3F800217AB10024C3F80041FC
:105940006C4B1C706C4A6D48032106F0D7FE684B07
:1059500022461868042106F0E6FB5B4BD3F8582179
:105960002AB30022C3F85821D3F80044C3F80044F6
:10597000E00505D55F4B012208201A70FFF77AFB7E
:10598000A10505D55B4B002210201A70FFF772FBB2
:1059900062050CD5574B1A784AB100221A704A4B4F
:1059A0000122C3F8082520209A65FFF763FB464BC8
:1059B000DFF838B1D3F85C31F3B1464B9B681BB9C3
:1059C0009AF800305B0617D03F4B0022C3F85C21E9
:1059D000DBF80030404A23F00113CBF800303B687D
:1059E00023F4803343F001033B601368042023F069
:1059F00001131360FFF73EFBDBF800403B681C40DF
:105A000000F03381304BD3F82C95B9F1000F40F002
:105A10002C8130480022002302F038FD002840F09D
:105A2000248114F001230CBF94FAA4F393FAA3F396
:105A3000B3FA83F30293029B9DF808400F2BC8BF73
:105A4000103C2B4BCCBFE4B244F0800418682146D4
:105A500006F030FB039006F059FB63B2049304F0A8
:105A60000803059363B2002B064680F29C80039BDB
:105A7000058A5B8BD0F80C80C3F30A039D4240F289
:105A80008C801D46002608F06043B3F1005F06D00D
:105A900041461B48DFF868802A4608F0B3FA002E1A
:105AA00000F0B380029B01229A40DBF8003023EA29
:105AB0000203CBF80030A8E0124B134A33EA280364
:105AC00028BF1346F6E600BF00700240C514002050
:105AD0004C110020E405002044110020C6140020D1
:105AE0000871024030710240C414002048110020A7
:105AF00050110020C7140020A1F2000050E5000062
:105B000000110020507102402C7102406348314660
:105B100006F0F6FD0220FFF7ADFAB8F1000FFFF630
:105B2000E9AE013D062D7FF6E5AEE9E6002DF4D1A4
:105B30005B4B0122DA64E3E694FAA4F5B5FA85F545
:105B400008FA05F345F080052946D9F8000024EA53
:105B5000030406F0AFFA06F0D9FA06462846FFF726
:105B600063F8014606F10C0005F074F8338A002B47
:105B70007FF4DCAE304606F0CDFA18B1304606F0C0
:105B8000CDFAD3E6284606F0B1FD0146434806F0BB
:105B9000B7FD0220FFF76EFAC8E606F0BBFA80F008
:105BA0000106F6B26FE704F008023D4B002A5FD011
:105BB000D3F8C03413F4803F08BF9946328AF368A3
:105BC000758A03EB0208AD1A72699B1AED1A4D45EE
:105BD00053D2344A344800954B46012104F0E6FE86
:105BE000294606F10C0005F00DF8039B5B8BC3F30F
:105BF0000A034B457FF456AFF2687169738A521AF3
:105C00009B1A328A93423FF44DAF4FF080530121EB
:105C1000D3F83031082B02BF214B8222C3F81C2C51
:105C2000029B3A688AF8004001FA03F322EA030271
:105C30003A6004F008021A4B0ABB049A04F00F04FD
:105C4000002A4FF0140202FB0432A9BF0A3403EB0E
:105C50008403C2F80087C2F80457AFBF43F824108A
:105C6000C2F80086C2F80456596007B0BDE8F08F4C
:105C700004F5947253F82290A0E74D46B0E7049AD9
:105C8000002AB5BFC3F8A086C3F8A087C3F8A456FE
:105C9000C3F8A457B4BF59629964E6E7941300208F
:105CA00000700240A7F2000050E5000010B5EFF3CD
:105CB0001184202383F31288BFF36F8F164B1B7858
:105CC00003F0FF02CBB11549D1F82C3513B30023F3
:105CD000C1F82C354FF08053D3F83031082B0CD15C
:105CE0000F4BD3F8000CC02188B949F27530C3F8C6
:105CF000000CC3F8141CC3F8000C84F31188BFF324
:105D00006F8F002A0CBF6FF00A00002010BDC3F88F
:105D1000141CF2E71A46F0E7C71400200070024096
:105D200000E0064073B5002200921146402304466D
:105D3000FEF7B2FE024648B1604A6148012106F012
:105D4000DDFC6FF00404204602B070BD00904023DB
:105D500020468021FEF7A0FE04460028ECD15949D8
:105D6000594B4860C860012618688E6004F02DFC0D
:105D7000051E07DA554A52482B46314604F00CFE00
:105D80002C46E0E7EFF31185202383F31288BFF35D
:105D90006F8F4F4B4FF40062C3F8002406F098FC5D
:105DA00008B1FEF7A9FF4FF08053D3F83031082B2C
:105DB00018D1EFF31180202383F31288BFF36F8F84
:105DC000444BD3F8001CC022002970D149F2753130
:105DD000C3F8001CC3F8142CC3F8001C80F311880E
:105DE000BFF36F8F3A4B0122C3F80025D3F800248C
:105DF0001205FBD54FF40062C3F800244FF0805326
:105E0000D3F83031082B17D1EFF31180202383F31F
:105E10001288BFF36F8F2F4BD3F8001C002949D194
:105E200049F27532C3F8002CC3F8141CC3F8002CD7
:105E300080F31188BFF36F8F06F04AFC30B1FEF794
:105E400079FF06F045FC08B1FEF756FF4FF080538E
:105E5000D3F83031082B1E4B0AD140F2E372C3F85D
:105E600000284022C3F80428BFF36F8FBFF34F8F81
:105E70008022C3F81C250122C3F83025164B40F2BE
:105E8000FF121A60154B00211960154B1960154B54
:105E90001970FFF70DFC144B197006F019FC08B1CE
:105EA000FEF748FF85F31188BFF36F8F4BE7C3F808
:105EB000142C93E70022C3F8142CB9E7C6F20000B3
:105EC00050E50000EC100020FC100020E8F200007B
:105ED0000070024000E006404C11002048110020F4
:105EE00044110020C4140020C6140020084B70B5D3
:105EF000C31A0D4607499B100446594306484022E1
:105F000006F043FC2B4601462046BDE8704018478A
:105F1000B0130020B76DDBB6B8E1000073B50C4CD0
:105F20000C4A4023041B00930D460B460A49A4105B
:105F300061430646094806F054FC014628B1304644
:105F40002B4602B0BDE87040184702B070BD00BFDC
:105F5000B01300204FC80000B76DDBB6B8E10000F9
:105F60000022F8B5012105461046FDF79BF91048BF
:105F700001F0D6FA0446B8B901F0F2FA2F690D49DA
:105F8000384604F00FFB031E09DB01263E642D6931
:105F9000084905F11C0004F005FB031E02DA1C464B
:105FA0002046F8BDEE64FBE76FF00404F8E700BF9D
:105FB000E1600000A4E600001FB500220123CDE946
:105FC00002236C46074A6B46CDE9004406F038FCD4
:105FD00028B94FF480420023684602F057FA04B013
:105FE00010BD00BF61C8000010B5EFF3118420237D
:105FF00083F31288BFF36F8F074A136823F00201FF
:10600000DB07116002D4012006F0ABFD84F3118898
:10601000BFF36F8F10BD00BF0014002030B4104BD1
:106020000C2202FB003301460020D3E90E52986394
:10603000EFF31180202484F31288BFF36F8F1C6C60
:1060400004F0C00444F002041C6480F31188BFF320
:106050006F8F1DB12B46034830BC184730BC7047CA
:10606000B0130020B8E1000010B4EFF3118020223B
:1060700082F31288BFF36F8F17490B6843F0020455
:1060800013F001030C601AD04FF08043D3F80C14C6
:10609000D3F80C3413F0010311D0EFF3118182F324
:1060A0001288BFF36F8F0D4A136C03F0C00343F0E7
:1060B0000203136481F31188BFF36F8F012380F310
:1060C0001188BFF36F8F1BB110BC0020FFF7A6BF74
:1060D00010BC012006F03DBD00140020B0130020CC
:1060E00010B1012804D07047034B1B6C5B0701D132
:1060F000FFF794BF704700BFB0130020024AC3B23D
:106100001C2000FB03207047B0130020F8B52A497B
:10611000BFF35B8F0546012251E8003F41E80020B4
:106120000028F9D1BFF35B8F33B9244924484B6071
:10613000CB608A6004F049FA6B1E012B3BD8012D1D
:1061400007D14FF08043D3F81C3403F00303012B35
:1061500031D007F0F7FCA0B91A4B1E784FF08044FD
:106160000223C4F808330127D4F81824D4F81834CB
:10617000D20308D4002EF7D00021212007F0D6FD4D
:10618000F2E70026EAE703F00303012B0ED0D4F870
:1061900018354BB9D4F8042132B1C4F80431D4F81D
:1061A0000431C4F81875A760012DE3D14FF0804386
:1061B0000222C3F80423F8BDAC1300209C13002076
:1061C000CC130020CE14002008B5074807F063FA6E
:1061D00038B10648FDF71CFB0448FBF77FFE0020A2
:1061E00008BD6FF01200FBE70CE20000F161000057
:1061F0000A2838B5074D044604D1AB680D215B6809
:1062000028469847AB6803485B68E1B29847204648
:1062100038BD00BF0CE200002DE9F043476840F2B2
:106220000636D0063B7C87B002EA060654BFC2F3AE
:10623000401C4FF0030C01F01F05B6F5837F144698
:1062400045EA43158DF803C044D00DD8062E16D06C
:1062500005D8A6B1022E3FD06FF0150037E0B6F595
:10626000807FF9D101260AE040F20222964235D021
:10627000B6F5407F34D0B6F5007FEDD1022622037B
:1062800030D57A6801238B40C2F80835B868A0BBC6
:1062900005F01F036D092DD0012D77D13E4A02EB89
:1062A0008302C4F30043D2F8001783F00103C4F360
:1062B000404444EA430421F4E16144EA8C0421F0BF
:1062C000070144EA06230B43C2F80037002007B059
:1062D000BDE8F0830726D2E70426D0E70526CEE7FF
:1062E0000326CCE7630341BF01237A688B40C2F8E1
:1062F0000C35CBE74FF0A042D1E70DF10202294661
:1063000006F09FFE14F4403F80460CD1B868294641
:1063100006F0CCFEB8F1000FD8D19DF80210B86895
:1063200001F0B6FAD2E74FF0000901ABCDE90199CF
:10633000CDE90439CDF80C90B86803AA294606F0D7
:1063400055FD4845C2DB14F4003314D0C4F30044B7
:106350009DF803308DF80E3084F001048DF80C6048
:106360008DF80D40B8684B4603AA294606F0F1FDAA
:106370000028CFDAAAE7CDE904330DF10303039334
:10638000B86803AA294606F031FDF1E703F5E0738A
:1063900050F82330FFDE00BF00030050420970B503
:1063A000034602D0012A17D070BD0D4E32695168E4
:1063B0000029F9D003F01F0301250C689D40002936
:1063C000F2D08A682A4002D04B68304698472CB1F8
:1063D000236821461C46F2E7024EE7E72346F8E72A
:1063E000F0E10000D4E1000038B54568A86890B13C
:1063F00006F056FE014670B9A86806F035FE044660
:1064000058B902460649A86806F018FE224605213A
:106410000620FCF747FF002038BD6FF00400FBE7C3
:106420009D630000F0B544681646A068227C01F028
:106430001F0587B045EA421500286DD0B6F5001F4C
:1064400004D1294606F085FE002056E06268607C93
:10645000C2F8240501AA0020B6F5800F0190506013
:1064600037D1B3F1007F14BF052304238DF8043026
:106470000023CDE904230393E36823FA01F111F02B
:1064800001010DF103073AD1B6F1A07F37D105F034
:106490001F036A0903F5E07326D0012A3FD1214A80
:1064A00052F82330DB072AD4A0683A46294606F082
:1064B000C8FD16301BD00297A06803AA294606F033
:1064C00095FC002819DBA0680122294606F0F0FDA2
:1064D000BAE7B3F1C06F05D0B3F1007F14BF012359
:1064E0000223C3E70323C1E74FF0A042D8E7A06827
:1064F000394601F0D3F90028DDDA07B0F0BDA06815
:106500003A46294606F09DFD0028D5D19DF8031096
:10651000A06801F0BDF9CFE76FF08500EDE751F815
:106520002330FFDE0003005008B50022D0F88000C1
:10653000002301F087FD021E05DA0448044906F035
:106540002BFA002008BD0120FCE700BFE8E40000B2
:106550006BF300007FB50023CDE90133039390F87E
:106560000531044600F1DC0613BB01A92046FFF704
:10657000DBFF00283CD16FF00B05304606F06CFFC6
:1065800094F809315B0702D5206804F069F8029994
:1065900011B1E06907F01AF9019919B1D4F8800036
:1065A00007F014F9042384F80431284604B070BDC0
:1065B00001A906F0DEF920B91249134806F016FACF
:1065C000D9E794F80531012BCFD1029BC4F80031F3
:1065D000002201A9304606F077FE05460028E4D0E7
:1065E0000A490246084806F0D7F96FF00405C4E7E7
:1065F00094F80531002BE8D1D4F884309B08ADF82D
:106600000C30E2E791F30000E8E40000A8F300009A
:1066100037B50446002201212520FCF743FE6368BC
:10662000DD6A01AA0021284606F023FA002819DBBA
:10663000019B2A681979186800F0A6FB002811DB75
:1066400009490A480423082207F010F908490948B3
:106650000423082207F00AF900202469FFF74EFD01
:106660002060002003B030BD3C140020B0030020A7
:106670001C1400201404002070B5056986B0CDE913
:106680000112134695F80921D20706D42C492D484A
:1066900006F0ACF96FF0040030E095F80421511ECB
:1066A000012904D92849274806F076F9F2E72A6A31
:1066B0009A4201D3032B01D82449F4E76C6A631C86
:1066C00005F150061CD04FF4004C24EAE47440F26B
:1066D000E73000214FF47A720023E4FB0C01FAF753
:1066E0000FFD02460B4601A9304607F0CEF8002800
:1066F00004DB95F80431022B06D0002006B070BDF3
:106700004FF0FF321346EEE795F80831002BF4D036
:10671000002603A92846CDE90366059606F029F967
:1067200020B90B49074806F061F9E6E785F80861EA
:1067300003A9284606F035F90028DED1AAE700BFF4
:10674000C9F30000E8E40000E2F30000FCF30000FD
:106750002DF40000F0B50F46B90785B005461FD5EA
:10676000514C94F80431D4F80011032B04BF0123D9
:1067700084F8043141B14368994202D0E06907F0DE
:1067800025F80023C4F80031484E304606F064FE78
:1067900094F809315A0703D556F8DC0C03F060FF72
:1067A0008DB9414C94F80431032B06D0404941483F
:1067B00006F01CF9042384F804313C4805B0BDE818
:1067C000F04006F02DBE296839B1374E96F80741E2
:1067D0007CB1D6F8800006F0F9FF0024696891B317
:1067E000314BD3F8002191422AD1012283F80721AD
:1067F000E3E72B8901919B0002930022002301A96A
:1068000006F1B40007F041F800280DDA2A492948BA
:1068100006F0ECF8042386F804312968D6F88000E5
:1068200006F0D4FF0124D9E796F80531002BD5D125
:1068300096F80641002CD1D0012386F80731F1E704
:10684000D86906F0C3FF002CB7D1FB0729D501ADED
:106850000194C5E90144144C94F8053143B194F80E
:10686000063153B1D4F8003102930123ADF80C3056
:1068700029460D4806F095F813E02946204606F013
:1068800078F80028F4D194F80431032B4FF0010379
:1068900005D1D4F8002184F806310292E6E784F8A5
:1068A000083105B0F0BD00BF600300203C040020AB
:1068B0004CF40000E8E400006EF400002DE9F0471D
:1068C000056995F804C1BCF1010F8EB088461446E5
:1068D00005D07B4962467B4806F05EF834E0D2F88A
:1068E0000490B9F1000F27D1284606F098F808F176
:1068F000FF33012B1CD895F8093169F3000385F8A3
:1069000009313C22494605F1140007F089FBB8F132
:10691000020F0BD195F8093123F0020385F80931F4
:106920003C22002105F1780007F07AFB00200DE001
:10693000B8F1000FFAD1EDE7D16811F0030E08D0DD
:106940006149604806F052F86FF015000EB0BDE8DE
:10695000F087D0F804A00AF104070FCF04AE0FC6E9
:106960000FCF0FC6227897E80300102A86E80300AD
:1069700005D0182A10D0082A10D05449ABE7614638
:10698000A2788DF8281002F00703032B08D0042BFF
:1069900010D08BB14E499EE70221F1E77146EFE737
:1069A00000238DF8273012F038038DF826C005D06B
:1069B000484990E70123F4E79C46F2E76278022A0F
:1069C00004D0012A01D0444985E71346E2788DF8C6
:1069D0002930900702F004030CD59BB301238DF8F6
:1069E0002530D5F8DC30D3F86035002B05DA0023EC
:1069F0000B9318E033BB8DF82530384B8DF80C1015
:106A0000CDE901390BA9002301A88DF80D3001F063
:106A100059F818B132492B4805F0E8FF9AF83030A0
:106A2000003B18BF012395F8092163F3820285F822
:106A3000092194F90330E278002B01DB530603D5DA
:106A4000284948E7284946E708F1FF33012B33D8A6
:106A500027460FCF05F114060FC63B68336004AF1D
:106A60000FCF05F128060FC60FCF0FC697E803001A
:106A700086E8030095F80931B8F1020F43F00103ED
:106A800085F809317FF452AF0FCC05F178060FC6B7
:106A90002368336004AE0FCE05F18C040FC40FCE13
:106AA0000FC496E8030084E8030095F8093143F029
:106AB000020385F8093139E7B8F1000FE4D035E772
:106AC00082F40000E8E40000A0F40000D0F400002C
:106AD000EAF400000AF500002CF500000048E80187
